:03000000020006F5
:03005F0002000399
:0300030002008672
:20006200AE82AF837C007D00C3EC9EED9F50147AE87B031ABAFF011BEA4B70F70CBC00E8CB
:1C0082000D80E52253DBFE43DA01C2B09001F4120062D2B09001F412006280EE30
:06003500E478FFF6D8FD9F
:200013007900E94400601B7A009000A2780175A000E493F2A308B8000205A0D9F4DAF275F1
:02003300A0FF2C
:20003B007800E84400600A790175A000E4F309D8FC7800E84400600C7900900001E4F0A3C3
:04005B00D8FCD9FAFA
:0D00060075810712009EE582600302000371
:04009E007582002245
:00000001FF
